:100000000C9445000C9479000C9479000C947900C0
:100010000C9479000C9479000C9479000C9479007C
:100020000C9479000C9409050C9479000C947900D7
:100030000C9479000C9479000C9479000C9479005C
:100040000C9479000C9479000C9479000C9479004C
:100050000C9479000C9479000C9479000C9479003C
:100060000C9479000C9479000C9479000C944A0556
:100070000C9443050C9451050C9479006364696EEB
:100080006F70737578585B00CC0511241FBECFEFDD
:10009000CDBFDFE3DEBF809140008093400081113F
:1000A00005C098ED21E094BF209341008CBB2DE367
:1000B000ACE2BCE301C01D92AB32B207E1F71CE336
:1000C000A0E0BCE3E7E7F6E202C005900D92AC3297
:1000D000B107D9F710E0C5E4D0E004C02197FE01D4
:1000E0000E94B60EC434D107C9F70E941B060C94B7
:1000F00026120C94000000008093240880912308AD
:1001000087FFFCCF80912408089500C00000823052
:10011000910540F0880F991F0297019700C000C019
:1001200000C0D9F70895AF92BF92CF92DF92EF92BD
:10013000FF920F931F93CF93DF936C017B018B0191
:10014000040F151FEB015E01AE18BF08C017D107E1
:1001500059F06991D601ED91FC910190F081E02D6B
:10016000C6010995892B79F7C501DF91CF911F91C0
:100170000F91FF90EF90DF90CF90BF90AF900895D8
:10018000FC0157854089252F30E0842F90E0821BA9
:10019000930B541710F04F96089501970895FC01A2
:1001A00095858685981761F0A685AE0FBF2FB11D86
:1001B00051968C9196859F5F9F73968790E00895E6
:1001C0008FEF9FEF0895FC0195858685981731F094
:1001D0008685E80FF11D818990E008958FEF9FEFEC
:1001E0000895FC0195852685892F90E0805C9F4FBE
:1001F000821B91098F7399270895DC010FB607FEC2
:1002000004C0809111018823B9F01896ED91FC91FA
:100210001997848185FF10C01F969C911F97509657
:100220008C91981304C085818F7D85830895EDEAB4
:10023000FCE3E8940C945F0508950F931F93CF930C
:10024000DF93EC018C8581608C879F85888998136A
:100250000BC0E885F985848185FF06C08C8581FD0A
:100260000EC080E4848313C0062F1F851F5F1F719B
:100270008889811316C0CE010E94FD00F9CF8581C7
:100280008F77806490E49483E885F9858583E88599
:10029000F985628381E090E0DF91CF911F910F910A
:1002A0000895EF85EC0FFD2FF11DEF5AFF4F0083EE
:1002B0001F878C85E885F98581FF09C085818F7747
:1002C000806690E49483E885F9858583E3CF858112
:1002D0008062FBCFCF93DF93EC018C85882361F0A4
:1002E000E885F985858185FD03C0848186FD04C08C
:1002F000CE010E94FD00F4CFDF91CF910895CF92FF
:10030000DF92EF92FF926B010E9ACB010E94850063
:100310000E98C601FF90EF90DF90CF900C9485006F
:100320006091053C7091063C81110AC060911D3CB2
:1003300070E090E080E00E947F0160911D3C70E0E1
:1003400090E080E00C947F01FF920F931F93CF9376
:10035000DF93F62E18E001E0C82FD0E0982F9170BF
:100360004091013C5091023C9A013695279541708D
:10037000941327C02093013C3093023C8091003CB1
:10038000992369F00E94900190912C3C9F5F90937B
:100390002C3C953059F4F11009C08091003C802725
:1003A0008093003C0E94900110922C3CCE019595C8
:1003B0008795115089F6DF91CF911F910F91FF9092
:1003C000089588E0282784E83827D4CF0F931F9317
:1003D000CF93DF93EC018C01060F171FC017D107D5
:1003E00029F060E089910E94A401F8CFDF91CF91BC
:1003F0001F910F910895CF93DF93D82FC0E061E054
:100400008EE70E94A401CF5FDC13F9CFDF91CF917B
:10041000089590E1811116C0909306049091000414
:1004200094FD0AC09FB7F89481110FC08091140405
:10043000877F809314049FBF8091010A8F7D8093F2
:10044000010A089590930504E9CF8091140488600F
:10045000F0CFCF93DF93D82FC62F80E00E94090200
:100460008D2F80680E947B008C2F0E947B0081E092
:10047000DF91CF910C94090268E081E00C9429028D
:1004800080910006882379F08DE18093060681E053
:100490008093080680910B0680FFFCCF80911006A8
:1004A00090911106089589EF92E808958C30F0F448
:1004B00090E0FC01E059FB4520812F3FB9F0FC01A1
:1004C000EC59FB45E08130E2E39FF0011124FC5F31
:1004D000613069F42183885A9B45DC018C91E80FD7
:1004E000F11D8089613029F08860808B0895228316
:1004F000F2CF877FFACF8091253D81110AC01092FB
:10050000263D1092283D80E88093273D81E080932E
:10051000253D809101028B7F9091243D892B809312
:10052000010261E088E00E94560261E08AE00E94D8
:1005300056028091210884608093210880912008D0
:100540008162809320089091293D80912A3D90936B
:1005500020088093210861E080E00E94560281E03B
:100560000E94090261E082E00E9456020C943C0263
:100570008F929F92AF92BF92CF92DF92EF92FF92B3
:100580000F931F93CF93DF93C82F4B012091233CF0
:100590003091243C4091253C5091263C6091273C71
:1005A0007091283C8091293C90912A3C20563A4EEB
:1005B00041095109610971098109910903E10E9409
:1005C0006C0EA12CE8E4BE2EF8EECF2EDD24D394E1
:1005D000E12CF12C00E010E00E940F0ED22FA32E90
:1005E000B42EC52ED62EE72EF82E192F00E10E942C
:1005F000870E622F86E00E9429022D2F3A2D4B2D67
:100600005C2D6D2D7E2D8F2D912F08E00E94870E81
:10061000622F87E00E9429026D2F88E00E94290244
:1006200060E081E30E9429026BE081E00E942902E0
:10063000C03118F564E88DE40E9429026EEF6C0F5A
:10064000606F89E00E942902B40190E080E02DE310
:1006500030E040E050E00E94E60D622F85E0DF913F
:10066000CF911F910F91FF90EF90DF90CF90BF90AF
:10067000AF909F908F900C94290267E88DE40E94C0
:100680002902C5506C2FDCCFE0EAF0E081818D7F3C
:100690008183A0E0B6E012968C9112978F7C8065E2
:1006A00012968C9380E480830E9440020E94400254
:1006B000BC0181EF9BE30E94B00D60932F3C7093CF
:1006C000303C0895FC0101900020E9F73197AF011B
:1006D000481B590BBC018DEA9CE30C9493008F924C
:1006E0009F92AF92BF92CF92DF92EF92FF92CF9301
:1006F000DF93CDB7DEB7A197CDBFDEBF6AE081E063
:100700000E9429028BEB92E00197F1F700C00000F4
:1007100062E88BE30E942902EBEBF2E03197F1F7FC
:1007200000C0000063E88BE30E94290280E00E9481
:1007300009028CE30E947B0080E00E947B00F82E7F
:1007400081E00E9409028F2D8095082E000C990BE4
:100750000F968093AB3C9093AC3C0E943C028EE899
:1007600094EA0E946203C090AB3CD090AC3C0D2C4C
:10077000000CEE08FF08F7FE3CC06DE28DEA9CE33A
:100780000E941D0122273327A9012C193D094E097A
:100790005F0919A2CE0181967C019AE0892E912CE5
:1007A000A12CB12CCA01B901A50194010E94C40D6C
:1007B000605DF70162937F01211531054105510507
:1007C00089F7E114F10419F0C7010E94620387EA76
:1007D00094EA0E946203A196CDBFDEBFDF91CF9164
:1007E000FF90EF90DF90CF90BF90AF909F908F9051
:1007F0000895A701960119A2CE0181967C018AE095
:10080000882E912CA12CB12CCA01B901A50194010B
:100810000E94C40D605DF70162937F0121153105CF
:100820004105510589F7CDCFCF93DF930E94620335
:10083000EC0187EA94EA0E9462038C0F9D1FDF910E
:10084000CF9108953F924F925F926F927F928F92D5
:100850009F92AF92BF92CF92DF92EF92FF920F934F
:100860001F93CF93DF934B015C0169017A014EE442
:10087000342EB7FE0AC0B094A09490948094811C4A
:10088000911CA11CB11C53E5352E30E1432E37E2FB
:10089000532E612C712CC501B401A30192010E9459
:1008A000E60DE901142F052FA0EFB8ED0E94080E08
:1008B0009B01AC01280D391D4A1D5B1DACE3B0E066
:1008C0000E94650D4B015C01A30192010E94E60D9F
:1008D000722E632E542E452E1F923F92A0EFB8ED3C
:1008E0000E94080E680D791D8A1D9B1D24E630E0CC
:1008F00040E050E00E94E60D5F934F933F932F93AB
:100900004F925F926F927F920F931F93DF93CF93DB
:100910008AEA94EA9F938F9382EA9CE39F938F9352
:100920000E94FB0E8DB79EB742968DBF9EBF95E489
:10093000392EF7FE0AC0F094E094D094C094C11C04
:10094000D11CE11CF11C27E5322E80E1482E87E204
:10095000582E612C712CC701B601A30192010E948F
:10096000E60DE901142F052FA0EFB8ED0E94080E47
:100970009B01AC012C0D3D1D4E1D5F1DACE3B0E095
:100980000E94650D4B015C01A30192010E94E60DDE
:10099000F22EE32ED42EC52E1F923F92A0EFB8ED7B
:1009A0000E94080E680D791D8A1D9B1D24E630E00B
:1009B00040E050E00E94E60D5F934F933F932F93EA
:1009C000CF92DF92EF92FF920F931F93DF93CF931B
:1009D0008DEB94EA9F938F9388E99CE39F938F9389
:1009E0000E94FB0E8DB79EB742968DBF9EBFDF91D2
:1009F000CF911F910F91FF90EF90DF90CF90BF901C
:100A0000AF909F908F907F906F905F904F903F90AE
:100A10000895EF93FF93EEE8FCE38F938FB78F93E6
:100A20009F937F9370E080819181805D9C4F808354
:100A30009183885E934018F0808391837F5F9281D9
:100A4000970F928380E09381981F93839481981FDE
:100A500094839581981F958396819F5F9683978154
:100A60009F4F978390859F4F908791859F4F918748
:100A700082E080930B0A7F919F918F918FBF8F911E
:100A8000FF91EF911895EF93FF93F898EDEAFCE34F
:100A90000C945705EF93FF93F898EDEAFCE30C9460
:100AA0008605EF93FF93EDEAFCE30C94B3052F93D7
:100AB0002FB72F938F939F93AF93BF936894CF9348
:100AC000DF9320E0C085D8E09089DF01A90FB21F35
:100AD000AF5ABF4F8C9120E42C838A839F5F9F7114
:100AE0008D812785291302C08F7D8D83908BDF91A7
:100AF000CF9116F00C941C01BF91AF919F918F91F3
:100B00002F912FBF2F91FF91EF9118952F932FB712
:100B10002F933F938F939F93CF93DF93C085D8E01C
:100B2000898198818674880F3485382B82FD0DC0A9
:100B3000C58581E08C0F8F732685281791F0CE0F25
:100B4000DF2F20E0D21F998B85873487DF91CF91EB
:100B50009F918F913F912F912FBF2F91FF91EF91F7
:100B600018953064F2CF8F938FB78F939F93CF9365
:100B7000DF93C085D8E09D8188818C8187FDFCCF83
:100B80009F7B90689D83DF91CF919F918F918FBFC5
:100B90008F91FF91EF9118951092AF3C1092B03C5D
:100BA00088EE93E0A0E0B0E08093B13C9093B23C3B
:100BB000A093B33CB093B43C80E894EA8093AD3CFE
:100BC0009093AE3C80E098E08093B53C9093B63C27
:100BD0001092B73C1092B83C40E856E968E970E0E2
:100BE00080E08F5F863011F487E00BC076956795C3
:100BF00057954795413099E059079DE3690771057D
:100C000080F794E090932A3D982F9095292F21709A
:100C100030E094E0220F331F9A95E1F78162822B36
:100C20008093293D80E298E080931E3D90931F3D84
:100C30001092253D0895CF93DF93CDB7DEB7CD5900
:100C4000D109CDBFDEBF88ED90E084BF90936100F5
:100C5000E0E0F6E093E592839DE0958390E2938354
:100C600091E09083109202029093030A9EEF90937A
:100C7000260A9093270A9BE09093000A22E0209393
:100C80000A0A789484BF909300018091B93C80FF58
:100C900012C08DEA9CE30E946A01E091B53CF0919C
:100CA000B63C1682158280EC84838091BB3C809395
:100CB000BA3C1092B93CFFB6F894E091B53CF09183
:100CC000B63C168283E087838DE890E28087918727
:100CD000148680E8858380EC86839091B83C0091EF
:100CE000B73C80910102992309F466C0816080932A
:100CF0000102090F1127111F000F111F000F111FF3
:100D0000005B1B4561E0F80180810E94560262E0B1
:100D1000F80181810E945602FFBE0E947B0262E0C0
:100D200081E00E94560262E083E00E94560262E087
:100D300086E00E94560262E087E00E94560262E06E
:100D40008BE00E94560280ED94EA0E9414049E01FA
:100D50002F5F3F4F3901CE0189569F4FCA56DF4F53
:100D600088839983C659D04048E0442E4CE3542EE2
:100D70007E0195E6E90EF11C8E0102571F4FF80126
:100D80003796C856DF4FE883F983C859D0402D56AF
:100D90003F4FC656DF4F28833983CA59D04084E677
:100DA000F30111928A95E9F78DEA9CE30E94F10024
:100DB000892B21F4A895F8CF8E7F99CF63018FB747
:100DC000F8948090903C9090913CA090923CB09090
:100DD000933C8FBF8DEA9CE30E94CF0097FFDEC259
:100DE0002FB7F8948091903C9091913CA091923CC7
:100DF000B091933C2FBF88199909AA09BB0940916A
:100E0000B13C5091B23C6091B33C7091B43C8417BA
:100E10009507A607B707F0F28FED94EA0E946203E8
:100E2000C3010E94140467EE74EAC3010E94F20E2B
:100E3000892B29F48DEE94EA0E941404B0CF87E048
:100E40009CE39F938F935F924F9220E13CE33F930B
:100E50002F93E1E1FCE3FF93EF9389E19CE39F9300
:100E60008F938DE19CE39F938F938EE19CE39F93FF
:100E70008F938FE19CE39F938F9383E29CE39F93F7
:100E80008F938BE095EA9F938F937F926F920E944E
:100E90001E0FCDBFDEBF882399F0893071F481E445
:100EA00095EA0E94140480911D3C90E0880F991FE0
:100EB0008093053C9093063C72CF88E595EABCCFC1
:100EC00081E3C82E8CE3D82EDF92CF9283E09CE39F
:100ED0009F938F9384E09CE39F938F9382E89CE39E
:100EE0009F938F9386E89CE39F938F938AE89CE37C
:100EF0009F938F9381E795EA9F938F937F926F9251
:100F00000E941E0FCDBFDEBF882309F43FC186308B
:100F100009F039C184E995EA0E9414042091863CC5
:100F20003091873C4091883C5091893C60918A3C4B
:100F300070918B3C80918C3C90918D3C0E9422045E
:100F40000E946F030E9444038091303C8F938091F4
:100F50002F3C8F938091AC3C8F938091AB3C8F93CF
:100F600080912E3C8F9380912D3C8F936091823C99
:100F70007091833C8091843C9091853C0E94690CE7
:100F800025E83BEE41E550E40E94A40C0E94BC0E13
:100F90009F938F937F936F938BEA95EA9F938F93A1
:100FA000FF92EF920E94FB0E8090033C9090043CD5
:100FB000F091073CC456DF4FF883CC59D0402091C4
:100FC000103CC356DF4F2883CD59D040A090193C28
:100FD000B0901A3CC0901B3CD0901C3C30901E3C02
:100FE0000E947B02B501832D0E94B80284E60E9414
:100FF000FB018FEF9FEF8093013C9093023C1F9287
:101000001F9280ED95EA9F938F9385ED95EA9F93CC
:101010008F931F930F930E94FB0E1801CDBFDEBF6D
:101020006801F60181916F0160E0880F0E94A401C0
:10103000C856DF4F28813981C859D040C216D3061F
:1010400081F71F92C356DF4F3881CD59D0403F936F
:1010500081E19CE39F938F9385ED95EA9F938F9316
:101060001F930F930E94FB0ECDBFDEBF5801F50109
:1010700081915F0160E0880F0E94A401CA14DB0423
:10108000B1F71F92C456DF4FF881CC59D040FF937F
:101090005F924F9285ED95EA9F938F931F930F93E5
:1010A0000E94FB0ECDBFDEBFF10181911F0160E008
:1010B000880F0E94A401C656DF4F28813981CA5982
:1010C000D0402215330581F7F8018681880F61E051
:1010D0008F5F0E94A40160E083E00E94A40160E0B1
:1010E00080EF0E94A40160E081E20E94A40168E018
:1010F00070E082EA9CE30E94E60160E0882D0E9495
:10110000A40169E070E088E99CE30E94E60160E0E8
:10111000892D0E94A401F70101900020E9F7319781
:10112000BF016E197F09C7010E94E60161E37CE3FC
:10113000FB0101900020E9F7BF0162537C4381E38A
:101140009CE30E94E6018091013CD090023C60E06B
:1011500080950E94A40160E08D2D80950E94A401DD
:1011600083E00E94FB010E943C028CED95EA0E9404
:10117000140480912D3C90912E3C019680932D3C3F
:1011800090932E3C0CCE80EF95EA56CEDF92CF9214
:1011900089E096EA9F938F937F926F920E941E0F31
:1011A0000F900F900F900F900F900F90882309F4DD
:1011B000F2C0813009F0ECC08BE196EA0E94140481
:1011C0002091863C3091873C4091883C5091893CED
:1011D00060918A3C70918B3C80918C3C90918D3CCD
:1011E0000E9422040E946F030E9444038091303CBD
:1011F0008F9380912F3C8F938091AC3C8F93809103
:10120000AB3C8F9380912E3C8F9380912D3C8F939C
:1012100084EB95EA9F938F93FF92EF920E94FB0ECF
:101220003090073C9090103CA090193CB0901A3C34
:10123000C0901B3CD0901C3C80901E3C0E947B02C6
:10124000B501882D0E94B80284E60E94FB018FEF51
:101250009FEF8093013C9093023C1F921F9280ED80
:1012600095EA9F938F9385ED95EA9F938F931F93B4
:101270000F930E94FB0E5801CDBFDEBF6801F6013F
:1012800081916F0160E0880F0E94A401C856DF4F72
:1012900028813981C859D0402C153D0581F71F920E
:1012A0009F9281E19CE39F938F9385ED95EA9F93B5
:1012B0008F931F930F930E94FB0ECDBFDEBF48019B
:1012C000F40181914F0160E0880F0E94A4018C1409
:1012D0009D04B1F71F923F925F924F9285ED95EA80
:1012E0009F938F931F930F930E94FB0ECDBFDEBF82
:1012F000F50181915F0160E0880F0E94A401C6564C
:10130000DF4F28813981CA59D040A216B30681F730
:10131000F8018681880F61E08F5F0E94A40160E080
:1013200083E00E94A40160E080EF0E94A40160E0DD
:101330008EE30E94A401F70101900020E9F73197A4
:10134000BF016E197F09C7010E94E60161E37CE3DA
:10135000FB0101900020E9F7BF0162537C4381E368
:101360009CE30E94E6018091013CD090023C60E049
:1013700080950E94A40160E08D2D80950E94A401BB
:1013800083E00E94FB010E943C0283E396EAEFCED9
:1013900088E496EA51CD82E696EA4ECD8B339105EC
:1013A00009F43ACDF60181936F01CA56DF4F2881C7
:1013B0003981C659D0402E173F0709F000CD2CCDFA
:1013C000ABE0B0E0E6EEF9E00C94700D7C013B017F
:1013D0008A01FC0116821782838181FFC8C1CE0178
:1013E00001965C01F7019381F30193FD859193FFD1
:1013F00081913F01882309F453C1853239F493FD6B
:10140000859193FF81913F01853229F4B70190E0E6
:101410000E94D90BE7CF912C212C312CFFE1F31541
:1014200038F08B3211F190F4803209F1833229F1D6
:1014300037FC3CC020ED280F2A3050F536FE20C086
:101440008AE0989E200D1124922E06C08D3291F0D4
:10145000803371F7689430F8F30193FD859193FF21
:1014600081913F018111DACF21C0689431F86894ED
:1014700032F8F2CF689433F8EFCF689434F8ECCFB9
:10148000EAE02E9E200D1124222E689435F8E4CF38
:101490008E3229F436FC04C1689436F8DDCF8C36E0
:1014A00019F4689437F8D8CF8836B1F2982F9F7D19
:1014B00095549330E0F08336A1F18337C1F1833541
:1014C00009F063C02801F2E04F0E511CF801C08002
:1014D000D180692D70E036FC02C06FEF7FEFC6014E
:1014E0000E94C30B4C01689437F882010AC00C5F5C
:1014F0001F4FFFE3F98388248394912C6501E894BE
:1015000037F833FE2DC0522C8114910471F555200B
:1015100009F468CFB70180E290E00E94D90B5A9499
:10152000F6CFF801808189830E5F1F4FE4CF280139
:10153000F2E04F0E511CF801C080D180692D70E09F
:1015400036FC02C06FEF7FEFC6010E94CE0B4C014C
:101550008201D5CFB70180E290E00E94D90B2A9496
:101560002814190409F0B0F7CECFF60137FC8591A5
:1015700037FE81916F01B70190E00E94D90B5110A5
:101580005A94F1E08F1A9108BFCF843619F089364A
:1015900009F077C0F80137FE6BC0608171818281EC
:1015A00093810C5F1F4FF32DFF763F2E97FF09C0ED
:1015B00090958095709561957F4F8F4F9F4F689460
:1015C00037F82AE030E0A5010E94090CC82ECA189D
:1015D0008C2C432C36FE0CC0E89440F8C91440F41F
:1015E00034FE05C032FC03C0F32DFE7E4F2E892C45
:1015F00044FE95C0FE01EC0DF11D8081803309F0A1
:1016000087C0242D297E422E842D8870582E43FCBD
:1016100095C040FE8FC09C2C821418F42C0C922C88
:10162000981844FE91C0B70180E390E00E94D90B66
:1016300042FE09C088E790E041FE02C088E590E0E4
:10164000B7010E94D90BC91408F48AC0CA94D12CDE
:101650009FEFC91AD90ACA0CDB1CF60182916F01EF
:10166000B70190E00E94D90BAC14BD04B1F74FCF85
:1016700060817181072E000C880B990B0E5F1F4F44
:1016800092CFD32CE894D4F82AE030E0853739F1B2
:10169000232D297FD22E8F3601F148F48835A9F009
:1016A000F701868197812B96E2E10C94890D8037B2
:1016B00049F08837A9F7D4FE02C06894D2F820E137
:1016C00030E00DC06894D4F8F6CF34FE03C0822F0A
:1016D0008660D82E20E132E002C028E030E0F80138
:1016E000D7FE0FC060817181828193810C5F1F4F93
:1016F000A5010E94090CC82ECA183D2CE89437F8A1
:1017000067CF6081718190E080E00E5F1F4FF0CF66
:1017100042FC02C0839478CF8394839475CF842D48
:10172000867809F471CFF6CFB70180E290E00E948D
:10173000D90B83948214C0F3512C73CF522C5818B8
:10174000821408F46ECFF8CF842D867809F47BCF0D
:101750008BE241FE80E247FC8DE2B70190E071CF61
:10176000B70180E390E00E94D90B9A946CCF8FEF81
:101770009FEF99CF91110C94110D803219F089507F
:101780008550C8F70895FC01059061507040011024
:10179000D8F7809590958E0F9F1F0895FC0161509A
:1017A000704001900110D8F7809590958E0F9F1F83
:1017B00008950F931F93CF93DF93182F092FEB01F9
:1017C0008B8181FD09C01FEF0FEF812F902FDF91DB
:1017D000CF911F910F91089582FF14C02E813F81F8
:1017E0008C819D81281739073CF4E881F981CF016C
:1017F00001968883998310838E819F8101968E83C1
:101800009F83E3CFE885F985812F0995892BA1F383
:10181000DACFFA01AA27283051F1203181F1E8947A
:101820006F936E7F6E5F7F4F8F4F9F4FAF4FB1E0D3
:101830003ED0B4E03CD0670F781F891F9A1FA11DCE
:10184000680F791F8A1F911DA11D6A0F711D811DCF
:10185000911DA11D20D009F468943F912AE0269F94
:1018600011243019305D3193DEF6CF010895462FF3
:101870004770405D4193B3E00FD0C9F7F6CF462FD4
:101880004F70405D4A3318F0495D31FD405241933D
:1018900002D0A9F7EACFB4E0A695979587957795FA
:1018A0006795BA95C9F700976105710508959B0181
:1018B000AC010A2E06945795479537952795BA950A
:1018C000C9F7620F731F841F951FA01D0895E89428
:1018D00009C097FB3EF490958095709561957F4F78
:1018E0008F4F9F4F9923A9F0F92F96E9BB27939526
:1018F000F695879577956795B795F111F8CFFAF436
:10190000BB0F11F460FF1BC06F5F7F4F8F4F9F4F66
:1019100016C0882311F096E911C0772321F09EE8C4
:10192000872F762F05C0662371F096E8862F70E02A
:1019300060E02AF09A95660F771F881FDAF7880F04
:101940009695879597F908950E94B70C0C942B0DE6
:101950000E941D0D38F00E94240D20F0952311F0F7
:101960000C94140D0C941A0D11240C945F0D0E940C
:101970003C0D70F3959FC1F3950F50E0551F629F8A
:10198000F001729FBB27F00DB11D639FAA27F00DD8
:10199000B11DAA1F649F6627B00DA11D661F829FFF
:1019A0002227B00DA11D621F739FB00DA11D621FE4
:1019B000839FA00D611D221F749F3327A00D611D01
:1019C000231F849F600D211D822F762F6A2F1124E3
:1019D0009F5750409AF0F1F088234AF0EE0FFF1F16
:1019E000BB1F661F771F881F91505040A9F79E3F6D
:1019F000510580F00C94140D0C945F0D5F3FE4F3DF
:101A0000983ED4F3869577956795B795F795E795C2
:101A10009F5FC1F7FE2B880F911D9695879597F9CB
:101A2000089599278827089597F99F6780E870E0BF
:101A300060E008959FEF80EC089500240A94161644
:101A4000170618060906089500240A9412161306AC
:101A5000140605060895092E0394000C11F488233A
:101A600052F0BB0F40F4BF2B11F460FF04C06F5F56
:101A70007F4F8F4F9F4F089557FD9058440F551F2C
:101A800059F05F3F71F04795880F97FB991F61F000
:101A90009F3F79F087950895121613061406551F77
:101AA000F2CF4695F1DF08C0161617061806991FE3
:101AB000F1CF86957105610508940895E894BB27D8
:101AC00066277727CB0197F908950E94A10DA59F5E
:101AD000900DB49F900DA49F800D911D1124089529
:101AE0002F923F924F925F926F927F928F929F922E
:101AF000AF92BF92CF92DF92EF92FF920F931F931C
:101B0000CF93DF93CDB7DEB7CA1BDB0BCDBFDEBFF4
:101B100009942A88398848885F846E847D848C84FF
:101B20009B84AA84B984C884DF80EE80FD800C8108
:101B30001B81AA81B981CE0FD11DCDBFDEBFED01C2
:101B40000895A29FB001B39FC001A39F700D811D96
:101B50001124911DB29F700D811D1124911D0895B6
:101B600097FB072E16F4009407D077FD09D00E944A
:101B7000A20E07FC05D03EF4909581959F4F0895E5
:101B8000709561957F4F0895A1E21A2EAA1BBB1B89
:101B9000FD010DC0AA1FBB1FEE1FFF1FA217B30739
:101BA000E407F50720F0A21BB30BE40BF50B661F4F
:101BB000771F881F991F1A9469F760957095809513
:101BC00090959B01AC01BD01CF010895052E97FBB7
:101BD0001EF400940E94FD0D57FD07D00E94C40D15
:101BE00007FC03D04EF40C94FD0D509540953095B4
:101BF00021953F4F4F4F5F4F089590958095709579
:101C000061957F4F8F4F9F4F0895B7FF0C94650DDF
:101C10000E94650D821B930B0895689401C0E8949F
:101C20008F929F92CF93DF930E941B0EDF91CF91F3
:101C30009F908F90089588249924F401E401B0E4E2
:101C40009F93AA279A158B049C04ED05FE05CF05EA
:101C5000D007A10798F4AD2FDC2FCF2FFE2FE92D51
:101C6000982C892E982F872F762F652F542F432F4E
:101C7000322F2227B85031F7BF9127C01B2EBF91BA
:101C8000BB27220F331F441F551F661F771F881F56
:101C9000991F881C991CEE1FFF1FCC1FDD1FAA1F58
:101CA000BB1F8A149B04EC05FD05CE05DF05A007CC
:101CB000B10748F08A189B08EC09FD09CE09DF0935
:101CC000A00BB10B21601A94E1F62EF49401AF0140
:101CD000BE01CD01000C0895002E083090F0982F21
:101CE000872F762F652F542F432F322F222708500E
:101CF000F4CF220F331F441F551F661F771F881F05
:101D0000991F0A95B2F7002D089597FD1094002EA3
:101D1000083098F00850232F342F452F562F672F67
:101D2000782F892F912DF4CF1594979587957795D6
:101D3000679557954795379527950A95AAF71124E2
:101D4000002D0895AA1BBB1B51E107C0AA1FBB1F92
:101D5000A617B70710F0A61BB70B881F991F5A9537
:101D6000A9F780959095BC01CD010895EE0FFF1F56
:101D70000590F491E02D09940E94C30E6894B1116E
:101D80000C945F0D08950E94440D88F09F5798F0C1
:101D9000B92F9927B751B0F0E1F0660F771F881F70
:101DA000991F1AF0BA95C9F714C0B13091F00E948A
:101DB0005E0DB1E008950C945E0D672F782F882793
:101DC000B85F39F0B93FCCF3869577956795B395B1
:101DD000D9F73EF490958095709561957F4F8F4F20
:101DE0009F4F0895FB01DC018D9101908019011036
:101DF000D9F3990B0895AEE0B0E0E1E0FFE00C9478
:101E00007E0D0D891E8986E08C8309831A838FEFEE
:101E10009FE78D839E83AE01475E5F4F6F89788D0C
:101E2000CE0101960E94E0092F813885020F131F11
:101E3000F80110822E96E4E00C94970DAEE0B0E02D
:101E4000E4E2FFE00C94800D85E08C838B899C8913
:101E500089839A83AE01495E5F4F6D897E89CE0189
:101E600001960E94C2102E96E2E00C94990D20FD7E
:101E700009C0FC0123FD05C022FF02C073836283F9
:101E800051834083089544FD17C046FD1DC0DB010A
:101E9000FC01AA0FBB1FEE1FFF1F1094D1F76A0FA2
:101EA0007B1F8E1F9F1F660F771F881F991F620F52
:101EB000711D811D911D089533E0660F771F881FE6
:101EC000991F3150D1F7F3CF34E0F7CF0F931F9321
:101ED000CF93DF938C01C8010E94D211EC0197FDD2
:101EE00008C00E94BA0B892BB1F7B801CE010E943D
:101EF0000E12CE01DF91CF911F910F9108958F9215
:101F00009F92AF92BF92EF92FF920F931F93CF9346
:101F1000DF938C01D62F7A01B22E0E94D2119C0140
:101F200033272B32310529F02D323105A9F468947D
:101F3000B7F8D15061F480E0DF91CF911F910F91FC
:101F4000FF90EF90BF90AF909F908F900895C80141
:101F50000E94D21197FDEFCFCB2DCD7F2B2D20737B
:101F6000F9F48033E9F4AA24AA94AD0E89F0C801EB
:101F70000E94D21197FD0CC0282F2F7D283561F4C7
:101F8000C264D25029F0C8010E94D21197FF08C044
:101F9000812C912C54011BC0B6FE2BC0C260DA2DDF
:101FA000812C912C540120ED280F283028F1C4FDFC
:101FB00009C02A3008F1C6FF05C02F7D3FEE320F61
:101FC0003630C8F0B8010E940E12C1FFB4CFC7FF6F
:101FD00008C0B094A09490948094811C911CA11C82
:101FE000B11C2C2FB501A401C7010E94370F81E05D
:101FF000A3CFC261D4CF27504C2FC501B4010E949A
:10200000430F4B015C01C260D15009F3C8010E942B
:10201000D21197FFC8CFD9CFA0E2B0E0E2E1F0E162
:102020000C94750D5C01962E7A01CE0101966C011F
:1020300080E2F60111928A95E9F7F501B3818901F1
:1020400030E020E0712C812CA0E041E050E0F8016C
:10205000B3FD8591B3FF8191982F8F01811107C046
:1020600010E000E0C801A096EDE00C948E0D8E35D6
:1020700019F42115310541F1A21713064CF48D35E1
:1020800049F18D3229F4811006C0882483941DC043
:10209000882009F464C0E92FE695E695E695EC0DF5
:1020A000FD2DF11D892F8770BA0101C0660F8A9539
:1020B000EAF78081682B6083791651F0971510F448
:1020C0009F5FE9CF9150E7CFA1E02F5F3F4FBFCF98
:1020D000812CFBCF882019F08E8180628E83AA2309
:1020E00059F0F6019E012F5D3F4F808180958083DE
:1020F0003196E217F307C9F788248394C5010E943B
:10210000D21197FD16C0E82FE695E695E695EC0D01
:10211000FD2DF11D208130E0AC014770552702C034
:10212000359527954A95E2F720FD06C0B5010E9436
:102130000E12882069F094CFE114F10429F0F70120
:102140008083C70101967C019A94812C9110D6CF8F
:10215000E114F10409F486CFF701108283CFE82F50
:10216000E695E695E695EC0DFD2DF11D982F9770FF
:10217000BA0101C0660F9A95EAF79081692B6083D6
:10218000782EA3CFB0E0A0E0E8ECF0E10C94730D62
:102190006C01EB015A01FC0116821782512CF601E9
:1021A000E380FE01E3FC8591E3FE8191182FEF01AE
:1021B0008823E9F090E00E94BA0B892B21F0C60138
:1021C0000E94660FECCF153241F4FE01E3FC15913D
:1021D000E3FE1191EF01153269F4C6010E94D2119C
:1021E00097FD8EC01817D9F2B6010E940E12852DE8
:1021F00090E08AC000E01A3231F4E3FC1591E3FE6E
:102200001191EF0101E0F12C20ED210F2A3048F16E
:1022100001FF37C0FF2059F31836B1F11C3609F41D
:102220003DC0112321F3612F70E08CE790E00E9404
:10223000C711892BE1F2912C812C00FD06C0F5011C
:1022400080809180C50102965C011E3679F5F60109
:102250004681578170E060E0202FC4010E94370F53
:102260009ECF02606F2D70E090E080E040E20E941F
:10227000430FF62EFE01E3FC1591E3FE1191EF01F1
:10228000C3CFFF24FA94C8CFFE01E3FC1591E3FE0F
:102290001191EF01183609F0C4CF08600460FE0107
:1022A000E3FC1591E3FE1191EF01BBCF1336C1F4AE
:1022B00001FD02C0FF24F394C6010E94D21197FDD4
:1022C0001FC08114910429F0F4018083C401019698
:1022D0004C01FA94F110F0CF00FD61CF53945FCF21
:1022E0001B35B9F49E01A4016F2DC6010E940C108C
:1022F000EC01892B89F7F6018381807309F477CF8C
:102300008FEF9FEF511073CFCDB7DEB7EFE00C9496
:102310008C0DC6010E94660F97FDF2CF1F36A9F102
:1023200030F4143641F0193639F0006405C0133723
:10233000B9F01537D1F70062202FA4016F2DC60127
:102340000E947F0F8111C8CFD6CF8114910429F04C
:10235000F4016082C40101964C01FA94FF2071F0EF
:10236000C6010E94D2113C0197FD08C00E94BA0B21
:10237000892B59F3B601C3010E940E1281149104F6
:1023800009F4AACFF4011082A7CF0061D5CFFC01D8
:102390000590061621F00020D9F7C0010895319765
:1023A000CF010895CF93DF93EC012B8120FF1AC05A
:1023B00026FF0CC02F7B2B838E819F8101968E83FD
:1023C0009F838A8190E0DF91CF91089522FF18C00A
:1023D000E881F9818081082E000C990B009729F47F
:1023E00020622B838FEF9FEFEECF3196E883F98346
:1023F0002E813F812F5F3F4F2E833F839927E3CF6D
:10240000EA85FB85099597FFF3CF2B81019621F093
:1024100080E2822B8B83E6CF80E1FBCFFB0123811F
:1024200020FF11C026FD0FC08F3F980771F08283F7
:102430002F7D206423832681378121503109268313
:102440003783992708958FEF9FEF0895F894FFCF72
:102450000504060708090A0004050607030201002F
:102460000102030000000000010101010000000062
:10247000102040800804020102040801000000004E
:102480001D019300C0006A01F100CF00E3005B531F
:1024900058313237385D20496E7465726E616C2038
:1024A00074656D703A20000D0A002530326C642589
:1024B00030326C642E2530326C6425630025303355
:1024C0006C642530326C642E2530326C64256300D8
:1024D0005B535441545D3A20626F6F746564005BD6
:1024E0005243565D3A20002453544154005B41430B
:1024F0004B5D3A204D696E696D616C2041505253BD
:10250000205458202D2056312E3000244366675227
:102510006164696F20256C752C256C642C256868B6
:10252000752C256868752C256C752C255B5E2C5DDB
:102530002C256868752C255B5E2C5D2C25686875DC
:10254000005B41434B5D3A2076616C696420244313
:102550006667526164696F005B4552525D3A20695B
:102560006E76616C69642024436667526164696FAA
:1025700000245478506F73506B7420256C642C25A4
:102580006C642C256C642C25632C25632C22255B24
:102590005E225D005B41434B5D3A2076616C69646D
:1025A00020245478506F73506B74002F413D2530B8
:1025B000366C642F4E25645425645625647C444C47
:1025C000394153204D696E4150525354587C20007C
:1025D000414D4F4E00252D36732563005B4150520F
:1025E000535D3A20506F73506B742073656E6400B6
:1025F0005B4552525D3A20696E76616C69642024B5
:102600005478506F73506B74002454785374617411
:10261000506B742022255B5E225D005B41434B5D65
:102620003A2076616C696420245458537461745064
:102630006B74005B415052535D3A20537461745087
:102640006B742073656E64005B4552525D3A20697D
:102650006E76616C69642024545853746174506BB5
:1026600074005B4552525D3A20696E76616C696414
:0726700020696E7075740013
:1026770001FFFF2F4F9A01015749444531000000E0
:1026870001444C3941530000008C0A0000CD11A0D1
:0C26970015FFFF0079A108000000000002
:00000001FF
